{
  "contractName": "SolnSquareVerifier",
  "abi": [
    {
      "constant": true,
      "inputs": [
        {
          "name": "interfaceId",
          "type": "bytes4"
        }
      ],
      "name": "supportsInterface",
      "outputs": [
        {
          "name": "",
          "type": "bool"
        }
      ],
      "payable": false,
      "stateMutability": "view",
      "type": "function"
    },
    {
      "constant": true,
      "inputs": [
        {
          "name": "tokenId",
          "type": "uint256"
        }
      ],
      "name": "getApproved",
      "outputs": [
        {
          "name": "",
          "type": "address"
        }
      ],
      "payable": false,
      "stateMutability": "view",
      "type": "function"
    },
    {
      "constant": false,
      "inputs": [
        {
          "name": "to",
          "type": "address"
        },
        {
          "name": "tokenId",
          "type": "uint256"
        }
      ],
      "name": "approve",
      "outputs": [],
      "payable": false,
      "stateMutability": "nonpayable",
      "type": "function"
    },
    {
      "constant": true,
      "inputs": [],
      "name": "getSymbol",
      "outputs": [
        {
          "name": "",
          "type": "string"
        }
      ],
      "payable": false,
      "stateMutability": "view",
      "type": "function"
    },
    {
      "constant": false,
      "inputs": [
        {
          "name": "paused",
          "type": "bool"
        }
      ],
      "name": "setPaused",
      "outputs": [],
      "payable": false,
      "stateMutability": "nonpayable",
      "type": "function"
    },
    {
      "constant": true,
      "inputs": [],
      "name": "getName",
      "outputs": [
        {
          "name": "",
          "type": "string"
        }
      ],
      "payable": false,
      "stateMutability": "view",
      "type": "function"
    },
    {
      "constant": true,
      "inputs": [],
      "name": "totalSupply",
      "outputs": [
        {
          "name": "",
          "type": "uint256"
        }
      ],
      "payable": false,
      "stateMutability": "view",
      "type": "function"
    },
    {
      "constant": false,
      "inputs": [
        {
          "name": "from",
          "type": "address"
        },
        {
          "name": "to",
          "type": "address"
        },
        {
          "name": "tokenId",
          "type": "uint256"
        }
      ],
      "name": "transferFrom",
      "outputs": [],
      "payable": false,
      "stateMutability": "nonpayable",
      "type": "function"
    },
    {
      "constant": false,
      "inputs": [
        {
          "name": "_myid",
          "type": "bytes32"
        },
        {
          "name": "_result",
          "type": "string"
        }
      ],
      "name": "__callback",
      "outputs": [],
      "payable": false,
      "stateMutability": "nonpayable",
      "type": "function"
    },
    {
      "constant": true,
      "inputs": [
        {
          "name": "owner",
          "type": "address"
        },
        {
          "name": "index",
          "type": "uint256"
        }
      ],
      "name": "tokenOfOwnerByIndex",
      "outputs": [
        {
          "name": "",
          "type": "uint256"
        }
      ],
      "payable": false,
      "stateMutability": "view",
      "type": "function"
    },
    {
      "constant": false,
      "inputs": [
        {
          "name": "_myid",
          "type": "bytes32"
        },
        {
          "name": "_result",
          "type": "string"
        },
        {
          "name": "_proof",
          "type": "bytes"
        }
      ],
      "name": "__callback",
      "outputs": [],
      "payable": false,
      "stateMutability": "nonpayable",
      "type": "function"
    },
    {
      "constant": false,
      "inputs": [
        {
          "name": "from",
          "type": "address"
        },
        {
          "name": "to",
          "type": "address"
        },
        {
          "name": "tokenId",
          "type": "uint256"
        }
      ],
      "name": "safeTransferFrom",
      "outputs": [],
      "payable": false,
      "stateMutability": "nonpayable",
      "type": "function"
    },
    {
      "constant": true,
      "inputs": [
        {
          "name": "index",
          "type": "uint256"
        }
      ],
      "name": "tokenByIndex",
      "outputs": [
        {
          "name": "",
          "type": "uint256"
        }
      ],
      "payable": false,
      "stateMutability": "view",
      "type": "function"
    },
    {
      "constant": false,
      "inputs": [
        {
          "name": "a",
          "type": "uint256[2]"
        },
        {
          "name": "b",
          "type": "uint256[2][2]"
        },
        {
          "name": "c",
          "type": "uint256[2]"
        },
        {
          "name": "input",
          "type": "uint256[2]"
        }
      ],
      "name": "verifyTx",
      "outputs": [
        {
          "name": "r",
          "type": "bool"
        }
      ],
      "payable": false,
      "stateMutability": "nonpayable",
      "type": "function"
    },
    {
      "constant": true,
      "inputs": [
        {
          "name": "tokenId",
          "type": "uint256"
        }
      ],
      "name": "ownerOf",
      "outputs": [
        {
          "name": "",
          "type": "address"
        }
      ],
      "payable": false,
      "stateMutability": "view",
      "type": "function"
    },
    {
      "constant": true,
      "inputs": [
        {
          "name": "owner",
          "type": "address"
        }
      ],
      "name": "balanceOf",
      "outputs": [
        {
          "name": "",
          "type": "uint256"
        }
      ],
      "payable": false,
      "stateMutability": "view",
      "type": "function"
    },
    {
      "constant": true,
      "inputs": [],
      "name": "getOwner",
      "outputs": [
        {
          "name": "",
          "type": "address"
        }
      ],
      "payable": false,
      "stateMutability": "view",
      "type": "function"
    },
    {
      "constant": false,
      "inputs": [
        {
          "name": "to",
          "type": "address"
        },
        {
          "name": "approved",
          "type": "bool"
        }
      ],
      "name": "setApprovalForAll",
      "outputs": [],
      "payable": false,
      "stateMutability": "nonpayable",
      "type": "function"
    },
    {
      "constant": false,
      "inputs": [
        {
          "name": "from",
          "type": "address"
        },
        {
          "name": "to",
          "type": "address"
        },
        {
          "name": "tokenId",
          "type": "uint256"
        },
        {
          "name": "_data",
          "type": "bytes"
        }
      ],
      "name": "safeTransferFrom",
      "outputs": [],
      "payable": false,
      "stateMutability": "nonpayable",
      "type": "function"
    },
    {
      "constant": true,
      "inputs": [],
      "name": "getBaseTokenURI",
      "outputs": [
        {
          "name": "",
          "type": "string"
        }
      ],
      "payable": false,
      "stateMutability": "view",
      "type": "function"
    },
    {
      "constant": true,
      "inputs": [
        {
          "name": "tokenId",
          "type": "uint256"
        }
      ],
      "name": "tokenURI",
      "outputs": [
        {
          "name": "",
          "type": "string"
        }
      ],
      "payable": false,
      "stateMutability": "view",
      "type": "function"
    },
    {
      "constant": true,
      "inputs": [
        {
          "name": "owner",
          "type": "address"
        },
        {
          "name": "operator",
          "type": "address"
        }
      ],
      "name": "isApprovedForAll",
      "outputs": [
        {
          "name": "",
          "type": "bool"
        }
      ],
      "payable": false,
      "stateMutability": "view",
      "type": "function"
    },
    {
      "constant": false,
      "inputs": [
        {
          "name": "newOwner",
          "type": "address"
        }
      ],
      "name": "transferOwnership",
      "outputs": [],
      "payable": false,
      "stateMutability": "nonpayable",
      "type": "function"
    },
    {
      "anonymous": false,
      "inputs": [
        {
          "indexed": false,
          "name": "key",
          "type": "bytes32"
        },
        {
          "indexed": false,
          "name": "addr",
          "type": "address"
        },
        {
          "indexed": false,
          "name": "tokenId",
          "type": "uint256"
        }
      ],
      "name": "SolutionAdded",
      "type": "event"
    },
    {
      "anonymous": false,
      "inputs": [
        {
          "indexed": true,
          "name": "from",
          "type": "address"
        },
        {
          "indexed": true,
          "name": "to",
          "type": "address"
        },
        {
          "indexed": true,
          "name": "tokenId",
          "type": "uint256"
        }
      ],
      "name": "Transfer",
      "type": "event"
    },
    {
      "anonymous": false,
      "inputs": [
        {
          "indexed": true,
          "name": "owner",
          "type": "address"
        },
        {
          "indexed": true,
          "name": "approved",
          "type": "address"
        },
        {
          "indexed": true,
          "name": "tokenId",
          "type": "uint256"
        }
      ],
      "name": "Approval",
      "type": "event"
    },
    {
      "anonymous": false,
      "inputs": [
        {
          "indexed": true,
          "name": "owner",
          "type": "address"
        },
        {
          "indexed": true,
          "name": "operator",
          "type": "address"
        },
        {
          "indexed": false,
          "name": "approved",
          "type": "bool"
        }
      ],
      "name": "ApprovalForAll",
      "type": "event"
    },
    {
      "anonymous": false,
      "inputs": [
        {
          "indexed": false,
          "name": "addr",
          "type": "address"
        }
      ],
      "name": "Paused",
      "type": "event"
    },
    {
      "anonymous": false,
      "inputs": [
        {
          "indexed": false,
          "name": "addr",
          "type": "address"
        }
      ],
      "name": "Unpaused",
      "type": "event"
    },
    {
      "anonymous": false,
      "inputs": [
        {
          "indexed": false,
          "name": "oldOwner",
          "type": "address"
        },
        {
          "indexed": false,
          "name": "newOwner",
          "type": "address"
        }
      ],
      "name": "ownershipTransferred",
      "type": "event"
    },
    {
      "anonymous": false,
      "inputs": [
        {
          "indexed": false,
          "name": "s",
          "type": "string"
        }
      ],
      "name": "Verified",
      "type": "event"
    },
    {
      "constant": false,
      "inputs": [
        {
          "name": "addr",
          "type": "address"
        },
        {
          "name": "tokenId",
          "type": "uint256"
        },
        {
          "name": "a",
          "type": "uint256[2]"
        },
        {
          "name": "b",
          "type": "uint256[2][2]"
        },
        {
          "name": "c",
          "type": "uint256[2]"
        },
        {
          "name": "input",
          "type": "uint256[2]"
        }
      ],
      "name": "addSolution",
      "outputs": [],
      "payable": false,
      "stateMutability": "nonpayable",
      "type": "function"
    },
    {
      "constant": false,
      "inputs": [
        {
          "name": "to",
          "type": "address"
        },
        {
          "name": "tokenId",
          "type": "uint256"
        }
      ],
      "name": "mint",
      "outputs": [
        {
          "name": "",
          "type": "bool"
        }
      ],
      "payable": false,
      "stateMutability": "nonpayable",
      "type": "function"
    }
  ],
  "bytecode": "0x60806040526040518060400160405280600881526020017f523220546f6b656e0000000000000000000000000000000000000000000000008152506040518060400160405280600281526020017f52320000000000000000000000000000000000000000000000000000000000008152506040518060600160405280603f81526020016200467a603f9139336000806101000a81548173ffffffffffffffffffffffffffffffffffffffff021916908373ffffffffffffffffffffffffffffffffffffffff16021790555060008060146101000a81548160ff021916908315150217905550620000fc6301ffc9a760e01b6200019860201b60201c565b620001146380ac58cd60e01b6200019860201b60201c565b6200012c63780e9d6360e01b6200019860201b60201c565b82600f90805190602001906200014492919062000238565b5081601090805190602001906200015d92919062000238565b5080601190805190602001906200017692919062000238565b506200018f635b5e139f60e01b6200019860201b60201c565b505050620002e7565b63ffffffff60e01b817bffffffffffffffffffffffffffffffffffffffffffffffffffffffff19161415620001cc57600080fd5b6001806000837bffffffffffffffffffffffffffffffffffffffffffffffffffffffff19167bffffffffffffffffffffffffffffffffffffffffffffffffffffffff1916815260200190815260200160002060006101000a81548160ff02191690831515021790555050565b828054600181600116156101000203166002900490600052602060002090601f016020900481019282601f106200027b57805160ff1916838001178555620002ac565b82800160010185558215620002ac579182015b82811115620002ab5782518255916020019190600101906200028e565b5b509050620002bb9190620002bf565b5090565b620002e491905b80821115620002e0576000816000905550600101620002c6565b5090565b90565b61438380620002f76000396000f3fe608060405234801561001057600080fd5b50600436106101735760003560e01c806340c10f19116100de578063893d20e811610097578063bdc32be011610071578063bdc32be014610d5d578063c87b56dd14610de0578063e985e9c514610e87578063f2fde38b14610f0357610173565b8063893d20e814610bbe578063a22cb46514610c08578063b88d4fde14610c5857610173565b806340c10f191461086957806342842e0e146108cf5780634f6ccce71461093d578063621e9ec01461097f5780636352211e14610af857806370a0823114610b6657610173565b806318160ddd1161013057806318160ddd146103cf57806323b872dd146103ed57806327dc297e1461045b5780632f745c591461052057806338bbfa50146105825780633eec14da146106de57610173565b806301ffc9a714610178578063081812fc146101dd578063095ea7b31461024b578063150704011461029957806316c38b3c1461031c57806317d7de7c1461034c575b600080fd5b6101c36004803603602081101561018e57600080fd5b8101908080357bffffffffffffffffffffffffffffffffffffffffffffffffffffffff19169060200190929190505050610f47565b604051808215151515815260200191505060405180910390f35b610209600480360360208110156101f357600080fd5b8101908080359060200190929190505050610faf565b604051808273ffffffffffffffffffffffffffffffffffffffff1673ffffffffffffffffffffffffffffffffffffffff16815260200191505060405180910390f35b6102976004803603604081101561026157600080fd5b81019080803573ffffffffffffffffffffffffffffffffffffffff16906020019092919080359060200190929190505050610fec565b005b6102a1611249565b6040518080602001828103825283818151815260200191508051906020019080838360005b838110156102e15780820151818401526020810190506102c6565b50505050905090810190601f16801561030e5780820380516001836020036101000a031916815260200191505b509250505060405180910390f35b61034a6004803603602081101561033257600080fd5b810190808035151590602001909291905050506112eb565b005b6103546114bb565b6040518080602001828103825283818151815260200191508051906020019080838360005b83811015610394578082015181840152602081019050610379565b50505050905090810190601f1680156103c15780820380516001836020036101000a031916815260200191505b509250505060405180910390f35b6103d761155d565b6040518082815260200191505060405180910390f35b6104596004803603606081101561040357600080fd5b81019080803573ffffffffffffffffffffffffffffffffffffffff169060200190929190803573ffffffffffffffffffffffffffffffffffffffff1690602001909291908035906020019092919050505061156a565b005b61051e6004803603604081101561047157600080fd5b81019080803590602001909291908035906020019064010000000081111561049857600080fd5b8201836020820111156104aa57600080fd5b803590602001918460018302840111640100000000831117156104cc57600080fd5b91908080601f016020809104026020016040519081016040528093929190818152602001838380828437600081840152601f19601f82011690508083019250505050505050919291929050505061158d565b005b61056c6004803603604081101561053657600080fd5b81019080803573ffffffffffffffffffffffffffffffffffffffff169060200190929190803590602001909291905050506115d0565b6040518082815260200191505060405180910390f35b6106dc6004803603606081101561059857600080fd5b8101908080359060200190929190803590602001906401000000008111156105bf57600080fd5b8201836020820111156105d157600080fd5b803590602001918460018302840111640100000000831117156105f357600080fd5b91908080601f016020809104026020016040519081016040528093929190818152602001838380828437600081840152601f19601f8201169050808301925050505050505091929192908035906020019064010000000081111561065657600080fd5b82018360208201111561066857600080fd5b8035906020019184600183028401116401000000008311171561068a57600080fd5b91908080601f016020809104026020016040519081016040528093929190818152602001838380828437600081840152601f19601f820116905080830192505050505050509192919290505050611643565b005b61086760048036036101808110156106f557600080fd5b81019080803573ffffffffffffffffffffffffffffffffffffffff1690602001909291908035906020019092919080604001906002806020026040519081016040528092919082600260200280828437600081840152601f19601f82011690508083019250505050505091929192908060800190600280602002604051908101604052809291906000905b828210156107d4578382604002016002806020026040519081016040528092919082600260200280828437600081840152601f19601f82011690508083019250505050505081526020019060010190610780565b50505050919291929080604001906002806020026040519081016040528092919082600260200280828437600081840152601f19601f820116905080830192505050505050919291929080604001906002806020026040519081016040528092919082600260200280828437600081840152601f19601f8201169050808301925050505050509192919290505050611648565b005b6108b56004803603604081101561087f57600080fd5b81019080803573ffffffffffffffffffffffffffffffffffffffff169060200190929190803590602001909291905050506119e5565b604051808215151515815260200191505060405180910390f35b61093b600480360360608110156108e557600080fd5b81019080803573ffffffffffffffffffffffffffffffffffffffff169060200190929190803573ffffffffffffffffffffffffffffffffffffffff16906020019092919080359060200190929190505050611a8f565b005b6109696004803603602081101561095357600080fd5b8101908080359060200190929190505050611aaf565b6040518082815260200191505060405180910390f35b610ade600480360361014081101561099657600080fd5b8101908080604001906002806020026040519081016040528092919082600260200280828437600081840152601f19601f82011690508083019250505050505091929192908060800190600280602002604051908101604052809291906000905b82821015610a4b578382604002016002806020026040519081016040528092919082600260200280828437600081840152601f19601f820116905080830192505050505050815260200190600101906109f7565b50505050919291929080604001906002806020026040519081016040528092919082600260200280828437600081840152601f19601f820116905080830192505050505050919291929080604001906002806020026040519081016040528092919082600260200280828437600081840152601f19601f8201169050808301925050505050509192919290505050611ae3565b604051808215151515815260200191505060405180910390f35b610b2460048036036020811015610b0e57600080fd5b8101908080359060200190929190505050611d2a565b604051808273ffffffffffffffffffffffffffffffffffffffff1673ffffffffffffffffffffffffffffffffffffffff16815260200191505060405180910390f35b610ba860048036036020811015610b7c57600080fd5b81019080803573ffffffffffffffffffffffffffffffffffffffff169060200190929190505050611d67565b6040518082815260200191505060405180910390f35b610bc6611db7565b604051808273ffffffffffffffffffffffffffffffffffffffff1673ffffffffffffffffffffffffffffffffffffffff16815260200191505060405180910390f35b610c5660048036036040811015610c1e57600080fd5b81019080803573ffffffffffffffffffffffffffffffffffffffff169060200190929190803515159060200190929190505050611de0565b005b610d5b60048036036080811015610c6e57600080fd5b81019080803573ffffffffffffffffffffffffffffffffffffffff169060200190929190803573ffffffffffffffffffffffffffffffffffffffff1690602001909291908035906020019092919080359060200190640100000000811115610cd557600080fd5b820183602082011115610ce757600080fd5b80359060200191846001830284011164010000000083111715610d0957600080fd5b91908080601f016020809104026020016040519081016040528093929190818152602001838380828437600081840152601f19601f820116905080830192505050505050509192919290505050611f1a565b005b610d65611f40565b6040518080602001828103825283818151815260200191508051906020019080838360005b83811015610da5578082015181840152602081019050610d8a565b50505050905090810190601f168015610dd25780820380516001836020036101000a031916815260200191505b509250505060405180910390f35b610e0c60048036036020811015610df657600080fd5b8101908080359060200190929190505050611fe2565b6040518080602001828103825283818151815260200191508051906020019080838360005b83811015610e4c578082015181840152602081019050610e31565b50505050905090810190601f168015610e795780820380516001836020036101000a031916815260200191505b509250505060405180910390f35b610ee960048036036040811015610e9d57600080fd5b81019080803573ffffffffffffffffffffffffffffffffffffffff169060200190929190803573ffffffffffffffffffffffffffffffffffffffff1690602001909291905050506120a9565b604051808215151515815260200191505060405180910390f35b610f4560048036036020811015610f1957600080fd5b81019080803573ffffffffffffffffffffffffffffffffffffffff16906020019092919050505061213d565b005b600060016000837bffffffffffffffffffffffffffffffffffffffffffffffffffffffff19167bffffffffffffffffffffffffffffffffffffffffffffffffffffffff1916815260200190815260200160002060009054906101000a900460ff169050919050565b60006003600083815260200190815260200160002060009054906101000a900473ffffffffffffffffffffffffffffffffffffffff169050919050565b6002600082815260200190815260200160002060009054906101000a900473ffffffffffffffffffffffffffffffffffffffff1673ffffffffffffffffffffffffffffffffffffffff168273ffffffffffffffffffffffffffffffffffffffff1614156110a4576040517f08c379a00000000000000000000000000000000000000000000000000000000081526004018080602001828103825260248152602001806142ee6024913960400191505060405180910390fd5b6110cf6000809054906101000a900473ffffffffffffffffffffffffffffffffffffffff16336120a9565b8061112657506000809054906101000a900473ffffffffffffffffffffffffffffffffffffffff1673ffffffffffffffffffffffffffffffffffffffff163373ffffffffffffffffffffffffffffffffffffffff16145b611198576040517f08c379a00000000000000000000000000000000000000000000000000000000081526004018080602001828103825260168152602001807f4e6f7420616c6c6f77656420746f20617070726f76650000000000000000000081525060200191505060405180910390fd5b816003600083815260200190815260200160002060006101000a81548173ffffffffffffffffffffffffffffffffffffffff021916908373ffffffffffffffffffffffffffffffffffffffff160217905550803373ffffffffffffffffffffffffffffffffffffffff168373ffffffffffffffffffffffffffffffffffffffff167f8c5be1e5ebec7d5bd14f71427d1e84f3dd0314c0f7b2291e5b200ac8c7c3b92560405160405180910390a45050565b606060108054600181600116156101000203166002900480601f0160208091040260200160405190810160405280929190818152602001828054600181600116156101000203166002900480156112e15780601f106112b6576101008083540402835291602001916112e1565b820191906000526020600020905b8154815290600101906020018083116112c457829003601f168201915b5050505050905090565b6000809054906101000a900473ffffffffffffffffffffffffffffffffffffffff1673ffffffffffffffffffffffffffffffffffffffff163373ffffffffffffffffffffffffffffffffffffffff16146113ad576040517f08c379a000000000000000000000000000000000000000000000000000000000815260040180806020018281038252601b8152602001807f43616e206f6e6c792062652063616c6c6564206279206f776e6572000000000081525060200191505060405180910390fd5b80600060146101000a81548160ff021916908315150217905550600060149054906101000a900460ff1615611440577f62e78cea01bee320cd4e420270b5ea74000d11b0c9f74754ebdbfc544b05a25833604051808273ffffffffffffffffffffffffffffffffffffffff1673ffffffffffffffffffffffffffffffffffffffff16815260200191505060405180910390a15b600060149054906101000a900460ff166114b8577f5db9ee0a495bf2e6ff9c91a7834c1ba4fdd244a5e8aa4e537bd38aeae4b073aa33604051808273ffffffffffffffffffffffffffffffffffffffff1673ffffffffffffffffffffffffffffffffffffffff16815260200191505060405180910390a15b50565b6060600f8054600181600116156101000203166002900480601f0160208091040260200160405190810160405280929190818152602001828054600181600116156101000203166002900480156115535780601f1061152857610100808354040283529160200191611553565b820191906000526020600020905b81548152906001019060200180831161153657829003601f168201915b5050505050905090565b6000600880549050905090565b61157433826123a3565b61157d57600080fd5b611588838383612438565b505050565b6115cc828260006040519080825280601f01601f1916602001820160405280156115c65781602001600182028038833980820191505090505b50611643565b5050565b60006115db83611d67565b82106115e657600080fd5b600660008473ffffffffffffffffffffffffffffffffffffffff1673ffffffffffffffffffffffffffffffffffffffff168152602001908152602001600020828154811061163057fe5b9060005260206000200154905092915050565b505050565b6000848484846040516020018085600260200280838360005b8381101561167c578082015181840152602081019050611661565b505050509050018460026000925b818410156116d05782846020020151600260200280838360005b838110156116bf5780820151818401526020810190506116a4565b50505050905001926001019261168a565b9250505083600260200280838360005b838110156116fb5780820151818401526020810190506116e0565b5050505090500182600260200280838360005b8381101561172957808201518184015260208101905061170e565b505050509050019450505050506040516020818303038152906040528051906020012090506014600082815260200190815260200160002060009054906101000a900460ff16156117e2576040517f08c379a000000000000000000000000000000000000000000000000000000000815260040180806020018281038252601f8152602001807f5468697320736f6c7574696f6e2077617320616c72656164792075736564210081525060200191505060405180910390fd5b60006117f086868686611ae3565b905080611865576040517f08c379a00000000000000000000000000000000000000000000000000000000081526004018080602001828103825260208152602001807f5468652070726f76696465642070726f6f66206973206e6f742076616c69642181525060200191505060405180910390fd5b61186d61407b565b60405180608001604052808481526020018a73ffffffffffffffffffffffffffffffffffffffff16815260200189815260200160011515815250905080601360008a81526020019081526020016000206000820151816000015560208201518160010160006101000a81548173ffffffffffffffffffffffffffffffffffffffff021916908373ffffffffffffffffffffffffffffffffffffffff1602179055506040820151816002015560608201518160030160006101000a81548160ff02191690831515021790555090505060016014600085815260200190815260200160002060006101000a81548160ff0219169083151502179055507fd54d9ef5d3801dc9b4c79ac9cb0d5ed3b9c83d168bd86bb6e937ca7df70392da838a8a604051808481526020018373ffffffffffffffffffffffffffffffffffffffff1673ffffffffffffffffffffffffffffffffffffffff168152602001828152602001935050505060405180910390a1505050505050505050565b60006013600083815260200190815260200160002060030160009054906101000a900460ff16611a7d576040517f08c379a000000000000000000000000000000000000000000000000000000000815260040180806020018281038252601d8152602001807f736f6c7574696f6e20686173206265656e2075736564206265666f726500000081525060200191505060405180910390fd5b611a87838361245c565b905092915050565b611aaa83838360405180602001604052806000815250611f1a565b505050565b6000611ab961155d565b8210611ac457600080fd5b60088281548110611ad157fe5b90600052602060002001549050919050565b6000611aed6140be565b604051806040016040528087600060028110611b0557fe5b6020020151815260200187600160028110611b1c57fe5b602002015181525081600001819052506040518060400160405280604051806040016040528088600060028110611b4f57fe5b6020020151600060028110611b6057fe5b6020020151815260200188600060028110611b7757fe5b6020020151600160028110611b8857fe5b60200201518152508152602001604051806040016040528088600160028110611bad57fe5b6020020151600060028110611bbe57fe5b6020020151815260200188600160028110611bd557fe5b6020020151600160028110611be657fe5b60200201518152508152508160200181905250604051806040016040528085600060028110611c1157fe5b6020020151815260200185600160028110611c2857fe5b6020020151815250816040018190525060606002604051908082528060200260200182016040528015611c6a5781602001602082028038833980820191505090505b50905060008090505b6002811015611cb257848160028110611c8857fe5b6020020151828281518110611c9957fe5b6020026020010181815250508080600101915050611c73565b506000611cbf828461253d565b1415611d1b577f3f3cfdb26fb5f9f1786ab4f1a1f9cd4c0b5e726cbdfc26e495261731aad44e396040518080602001828103825260228152602001806143366022913960400191505060405180910390a1600192505050611d22565b6000925050505b949350505050565b60006002600083815260200190815260200160002060009054906101000a900473ffffffffffffffffffffffffffffffffffffffff169050919050565b6000611db0600460008473ffffffffffffffffffffffffffffffffffffffff1673ffffffffffffffffffffffffffffffffffffffff1681526020019081526020016000206126af565b9050919050565b60008060009054906101000a900473ffffffffffffffffffffffffffffffffffffffff16905090565b3373ffffffffffffffffffffffffffffffffffffffff168273ffffffffffffffffffffffffffffffffffffffff161415611e1957600080fd5b80600560003373ffffffffffffffffffffffffffffffffffffffff1673ffffffffffffffffffffffffffffffffffffffff16815260200190815260200160002060008473ffffffffffffffffffffffffffffffffffffffff1673ffffffffffffffffffffffffffffffffffffffff16815260200190815260200160002060006101000a81548160ff0219169083151502179055508173ffffffffffffffffffffffffffffffffffffffff163373ffffffffffffffffffffffffffffffffffffffff167f17307eab39ab6107e8899845ad3d59bd9653f200f220920489ca2b5937696c3183604051808215151515815260200191505060405180910390a35050565b611f2584848461156a565b611f31848484846126bd565b611f3a57600080fd5b50505050565b606060118054600181600116156101000203166002900480601f016020809104026020016040519081016040528092919081815260200182805460018160011615610100020316600290048015611fd85780601f10611fad57610100808354040283529160200191611fd8565b820191906000526020600020905b815481529060010190602001808311611fbb57829003601f168201915b5050505050905090565b6060611fed826128a6565b611ff657600080fd5b601260008381526020019081526020016000208054600181600116156101000203166002900480601f01602080910402602001604051908101604052809291908181526020018280546001816001161561010002031660029004801561209d5780601f106120725761010080835404028352916020019161209d565b820191906000526020600020905b81548152906001019060200180831161208057829003601f168201915b50505050509050919050565b6000600560008473ffffffffffffffffffffffffffffffffffffffff1673ffffffffffffffffffffffffffffffffffffffff16815260200190815260200160002060008373ffffffffffffffffffffffffffffffffffffffff1673ffffffffffffffffffffffffffffffffffffffff16815260200190815260200160002060009054906101000a900460ff16905092915050565b6000809054906101000a900473ffffffffffffffffffffffffffffffffffffffff1673ffffffffffffffffffffffffffffffffffffffff163373ffffffffffffffffffffffffffffffffffffffff16146121ff576040517f08c379a000000000000000000000000000000000000000000000000000000000815260040180806020018281038252601b8152602001807f43616e206f6e6c792062652063616c6c6564206279206f776e6572000000000081525060200191505060405180910390fd5b600073ffffffffffffffffffffffffffffffffffffffff168173ffffffffffffffffffffffffffffffffffffffff1614156122a2576040517f08c379a000000000000000000000000000000000000000000000000000000000815260040180806020018281038252600f8152602001807f496e76616c69642041646472657373000000000000000000000000000000000081525060200191505060405180910390fd5b60008060009054906101000a900473ffffffffffffffffffffffffffffffffffffffff169050816000806101000a81548173ffffffffffffffffffffffffffffffffffffffff021916908373ffffffffffffffffffffffffffffffffffffffff1602179055507f7699c77f2404f9b6bbd003861bb4af8ae70b205e19e73d7ec7fe4590db59a6b78183604051808373ffffffffffffffffffffffffffffffffffffffff1673ffffffffffffffffffffffffffffffffffffffff1681526020018273ffffffffffffffffffffffffffffffffffffffff1673ffffffffffffffffffffffffffffffffffffffff1681526020019250505060405180910390a15050565b6000806123af83611d2a565b90508073ffffffffffffffffffffffffffffffffffffffff168473ffffffffffffffffffffffffffffffffffffffff16148061241e57508373ffffffffffffffffffffffffffffffffffffffff1661240684610faf565b73ffffffffffffffffffffffffffffffffffffffff16145b8061242f575061242e81856120a9565b5b91505092915050565b612443838383612918565b61244d8382612bf4565b6124578282612d92565b505050565b60008060009054906101000a900473ffffffffffffffffffffffffffffffffffffffff1673ffffffffffffffffffffffffffffffffffffffff163373ffffffffffffffffffffffffffffffffffffffff1614612520576040517f08c379a000000000000000000000000000000000000000000000000000000000815260040180806020018281038252601b8152602001807f43616e206f6e6c792062652063616c6c6564206279206f776e6572000000000081525060200191505060405180910390fd5b61252a8383612e59565b61253382612e7a565b6001905092915050565b6000807f30644e72e131a029b85045b68181585d2833e84879b9709143e1f593f0000001905061256b6140f2565b612573612fcb565b905080608001515160018651011461258a57600080fd5b61259261413a565b6040518060400160405280600081526020016000815250905060008090505b865181101561262857838782815181106125c757fe5b6020026020010151106125d957600080fd5b61261982612614856080015160018501815181106125f357fe5b60200260200101518a858151811061260757fe5b6020026020010151613419565b6134ad565b915080806001019150506125b1565b5061264b81836080015160008151811061263e57fe5b60200260200101516134ad565b90506126918560000151866020015161266384613560565b85604001516126758a60400151613560565b87606001516126878960000151613560565b89602001516135fa565b6126a157600193505050506126a9565b600093505050505b92915050565b600081600001549050919050565b60006126de8473ffffffffffffffffffffffffffffffffffffffff1661375e565b6126eb576001905061289e565b60008473ffffffffffffffffffffffffffffffffffffffff1663150b7a02338887876040518563ffffffff1660e01b8152600401808573ffffffffffffffffffffffffffffffffffffffff1673ffffffffffffffffffffffffffffffffffffffff1681526020018473ffffffffffffffffffffffffffffffffffffffff1673ffffffffffffffffffffffffffffffffffffffff16815260200183815260200180602001828103825283818151815260200191508051906020019080838360005b838110156127c65780820151818401526020810190506127ab565b50505050905090810190601f1680156127f35780820380516001836020036101000a031916815260200191505b5095505050505050602060405180830381600087803b15801561281557600080fd5b505af1158015612829573d6000803e3d6000fd5b505050506040513d602081101561283f57600080fd5b8101908080519060200190929190505050905063150b7a0260e01b7bffffffffffffffffffffffffffffffffffffffffffffffffffffffff1916817bffffffffffffffffffffffffffffffffffffffffffffffffffffffff1916149150505b949350505050565b6000806002600084815260200190815260200160002060009054906101000a900473ffffffffffffffffffffffffffffffffffffffff169050600073ffffffffffffffffffffffffffffffffffffffff168173ffffffffffffffffffffffffffffffffffffffff161415915050919050565b6002600082815260200190815260200160002060009054906101000a900473ffffffffffffffffffffffffffffffffffffffff1673ffffffffffffffffffffffffffffffffffffffff168373ffffffffffffffffffffffffffffffffffffffff16146129ec576040517f08c379a000000000000000000000000000000000000000000000000000000000815260040180806020018281038252600f8152602001807f496e636f7272656374206f776e6572000000000000000000000000000000000081525060200191505060405180910390fd5b612a0b8273ffffffffffffffffffffffffffffffffffffffff1661375e565b15612a61576040517f08c379a00000000000000000000000000000000000000000000000000000000081526004018080602001828103825260248152602001806143126024913960400191505060405180910390fd5b60006003600083815260200190815260200160002060006101000a81548173ffffffffffffffffffffffffffffffffffffffff021916908373ffffffffffffffffffffffffffffffffffffffff160217905550816002600083815260200190815260200160002060006101000a81548173ffffffffffffffffffffffffffffffffffffffff021916908373ffffffffffffffffffffffffffffffffffffffff160217905550612b4d600460008573ffffffffffffffffffffffffffffffffffffffff1673ffffffffffffffffffffffffffffffffffffffff168152602001908152602001600020613771565b612b94600460008473ffffffffffffffffffffffffffffffffffffffff1673ffffffffffffffffffffffffffffffffffffffff168152602001908152602001600020613794565b808273ffffffffffffffffffffffffffffffffffffffff168473ffffffffffffffffffffffffffffffffffffffff167fddf252ad1be2c89b69c2b068fc378daa952ba7f163c4a11628f55a4df523b3ef60405160405180910390a4505050565b6000612c4c6001600660008673ffffffffffffffffffffffffffffffffffffffff1673ffffffffffffffffffffffffffffffffffffffff168152602001908152602001600020805490506137aa90919063ffffffff16565b9050600060076000848152602001908152602001600020549050818114612d39576000600660008673ffffffffffffffffffffffffffffffffffffffff1673ffffffffffffffffffffffffffffffffffffffff1681526020019081526020016000208381548110612cb957fe5b9060005260206000200154905080600660008773ffffffffffffffffffffffffffffffffffffffff1673ffffffffffffffffffffffffffffffffffffffff1681526020019081526020016000208381548110612d1157fe5b9060005260206000200181905550816007600083815260200190815260200160002081905550505b600660008573ffffffffffffffffffffffffffffffffffffffff1673ffffffffffffffffffffffffffffffffffffffff168152602001908152602001600020805480919060019003612d8b9190614154565b5050505050565b600660008373ffffffffffffffffffffffffffffffffffffffff1673ffffffffffffffffffffffffffffffffffffffff168152602001908152602001600020805490506007600083815260200190815260200160002081905550600660008373ffffffffffffffffffffffffffffffffffffffff1673ffffffffffffffffffffffffffffffffffffffff1681526020019081526020016000208190806001815401808255809150509060018203906000526020600020016000909192909190915055505050565b612e638282613833565b612e6d8282612d92565b612e76816139a7565b5050565b612e83816128a6565b612ef5576040517f08c379a00000000000000000000000000000000000000000000000000000000081526004018080602001828103825260148152602001807f546f6b656e20646f6573206e6f7420657869737400000000000000000000000081525060200191505060405180910390fd5b612fa160118054600181600116156101000203166002900480601f016020809104026020016040519081016040528092919081815260200182805460018160011615610100020316600290048015612f8e5780601f10612f6357610100808354040283529160200191612f8e565b820191906000526020600020905b815481529060010190602001808311612f7157829003601f168201915b5050505050612f9c836139f3565b613b20565b601260008381526020019081526020016000209080519060200190612fc7929190614180565b5050565b612fd36140f2565b60405180604001604052807f04a765058e880806101eae046479ed7083d05b518fc448921860787e255aebc481526020017f2df04cadce790398a53aaf9a5951cb3434ca365c12b7b32ab7a06d57109acc168152508160000181905250604051806040016040528060405180604001604052807f1417cffe32ce8600e415aa753a3ebc31989b220cc856c6651381e32b1c03678381526020017f1e442a65c45299ac60948c483c02b84b107de754d11394de99e3af8d07f9adb0815250815260200160405180604001604052807f3061c279d06e81f43df8918080268d8b8dfd55d467e77afdc4b3c56e049b6d8b81526020017f2d05b16b6408b8420e1dbc9483865f8996efa130761fe3d673ba8c91f668f7f08152508152508160200181905250604051806040016040528060405180604001604052807f16231002b123feba8630eb7fe76afd7b067ccd7064c3d2164b4b32b3aee4240e81526020017f25d1972ef52d20e65e7329bf1082423b7a07c13e76f7d855eb3d02592ee5084d815250815260200160405180604001604052807f1e96f569b1b47ae53856c6453c08c65bbb8c0cbd528870c408d4748bff327c1281526020017f021eeaa80817f99bff86511ac7822abcd7265977608177c690a9e06075c9ddf88152508152508160400181905250604051806040016040528060405180604001604052807f04c12fabff9616fe38c157fcb707892fc64900c49f1e741de40211f5b1a0621381526020017f2769ec9c58b724329eb2de4d2e18e722f2cafff8f88ab4ee46847ee9989b2213815250815260200160405180604001604052807f16fe3db6ac28a443ec401b9a524bc6439cb86912324ad46cfb6209c2eda7249081526020017f0b76d93d992cdc01dda3263fb1f63cca88f97cecfd2654e1c04e33ca172b1499815250815250816060018190525060036040519080825280602002602001820160405280156132ba57816020015b6132a7614200565b81526020019060019003908161329f5790505b50816080018190525060405180604001604052807f04b362f0826ae1b253697d8fdd28605e66df0f47a8edc8ccb12eba9171372caf81526020017f18e3979bf75d184f79e5a82329e06d415ad4ea1582ec99bdadda76cefdcd8c64815250816080015160008151811061332957fe5b602002602001018190525060405180604001604052807f059fe3775393ade61f24aff57fa0a038e8048cf924b3fba649bd7957d9b3bc8181526020017f205fec65b036f5ea5378005aa4c3bfac5ca8f42b5af915db91eb36ec57d8e730815250816080015160018151811061339a57fe5b602002602001018190525060405180604001604052807f244a354c75e7e84acb88a871aa66dc2bb31ce52cadf8eda0b02c18edc369092a81526020017f06d3193e42aa1128ed6ab0b8ad387452382f8e9c479ed57e516415b23002e470815250816080015160028151811061340b57fe5b602002602001018190525090565b61342161413a565b61342961421a565b83600001518160006003811061343b57fe5b60200201818152505083602001518160016003811061345657fe5b602002018181525050828160026003811061346d57fe5b6020020181815250506000606083608084600060076107d05a03f1905080600081146134985761349a565bfe5b50806134a557600080fd5b505092915050565b6134b561413a565b6134bd61423c565b8360000151816000600481106134cf57fe5b6020020181815250508360200151816001600481106134ea57fe5b60200201818152505082600001518160026004811061350557fe5b60200201818152505082602001518160036004811061352057fe5b602002018181525050600060608360c084600060066107d05a03f19050806000811461354b5761354d565bfe5b508061355857600080fd5b505092915050565b61356861413a565b60007f30644e72e131a029b85045b68181585d97816a916871ca8d3c208c16d87cfd479050600083600001511480156135a5575060008360200151145b156135c95760405180604001604052806000815260200160008152509150506135f5565b604051806040016040528084600001518152602001828560200151816135eb57fe5b0683038152509150505b919050565b60006060600460405190808252806020026020018201604052801561363957816020015b613626614200565b81526020019060019003908161361e5790505b5090506060600460405190808252806020026020018201604052801561367957816020015b61366661425e565b81526020019060019003908161365e5790505b5090508a8260008151811061368a57fe5b602002602001018190525088826001815181106136a357fe5b602002602001018190525086826002815181106136bc57fe5b602002602001018190525084826003815181106136d557fe5b602002602001018190525089816000815181106136ee57fe5b6020026020010181905250878160018151811061370757fe5b6020026020010181905250858160028151811061372057fe5b6020026020010181905250838160038151811061373957fe5b602002602001018190525061374e8282613b64565b9250505098975050505050505050565b600080823b905060008111915050919050565b613789600182600001546137aa90919063ffffffff16565b816000018190555050565b6001816000016000828254019250508190555050565b600082821115613822576040517f08c379a000000000000000000000000000000000000000000000000000000000815260040180806020018281038252601e8152602001807f536166654d6174683a207375627472616374696f6e206f766572666c6f77000081525060200191505060405180910390fd5b600082840390508091505092915050565b61383c816128a6565b156138af576040517f08c379a00000000000000000000000000000000000000000000000000000000081526004018080602001828103825260138152602001807f546f6b656e20616c72656164792065786973740000000000000000000000000081525060200191505060405180910390fd5b816002600083815260200190815260200160002060006101000a81548173ffffffffffffffffffffffffffffffffffffffff021916908373ffffffffffffffffffffffffffffffffffffffff160217905550613948600460008473ffffffffffffffffffffffffffffffffffffffff1673ffffffffffffffffffffffffffffffffffffffff168152602001908152602001600020613794565b808273ffffffffffffffffffffffffffffffffffffffff163373ffffffffffffffffffffffffffffffffffffffff167fddf252ad1be2c89b69c2b068fc378daa952ba7f163c4a11628f55a4df523b3ef60405160405180910390a45050565b6008805490506009600083815260200190815260200160002081905550600881908060018154018082558091505090600182039060005260206000200160009091929091909150555050565b60606000821415613a3b576040518060400160405280600181526020017f30000000000000000000000000000000000000000000000000000000000000008152509050613b1b565b600082905060005b60008214613a65578080600101915050600a8281613a5d57fe5b049150613a43565b6060816040519080825280601f01601f191660200182016040528015613a9a5781602001600182028038833980820191505090505b50905060006001830390505b60008614613b1357600a8681613ab857fe5b0660300160f81b82828060019003935081518110613ad257fe5b60200101907effffffffffffffffffffffffffffffffffffffffffffffffffffffffffffff1916908160001a905350600a8681613b0b57fe5b049550613aa6565b819450505050505b919050565b6060613b5c8383604051806020016040528060008152506040518060200160405280600081525060405180602001604052806000815250613db9565b905092915050565b60008151835114613b7457600080fd5b6000835190506000600682029050606081604051908082528060200260200182016040528015613bb35781602001602082028038833980820191505090505b50905060008090505b83811015613d5957868181518110613bd057fe5b602002602001015160000151826000600684020181518110613bee57fe5b602002602001018181525050868181518110613c0657fe5b602002602001015160200151826001600684020181518110613c2457fe5b602002602001018181525050858181518110613c3c57fe5b602002602001015160000151600060028110613c5457fe5b6020020151826002600684020181518110613c6b57fe5b602002602001018181525050858181518110613c8357fe5b602002602001015160000151600160028110613c9b57fe5b6020020151826003600684020181518110613cb257fe5b602002602001018181525050858181518110613cca57fe5b602002602001015160200151600060028110613ce257fe5b6020020151826004600684020181518110613cf957fe5b602002602001018181525050858181518110613d1157fe5b602002602001015160200151600160028110613d2957fe5b6020020151826005600684020181518110613d4057fe5b6020026020010181815250508080600101915050613bbc565b50613d62614284565b60006020826020860260208601600060086107d05a03f190508060008114613d8957613d8b565bfe5b5080613d9657600080fd5b600082600060018110613da557fe5b602002015114159550505050505092915050565b6060808690506060869050606086905060608690506060869050606081518351855187518951010101016040519080825280601f01601f191660200182016040528015613e155781602001600182028038833980820191505090505b509050606081905060008090506000809050600090505b8851811015613e9a57888181518110613e4157fe5b602001015160f81c60f81b838380600101945081518110613e5e57fe5b60200101907effffffffffffffffffffffffffffffffffffffffffffffffffffffffffffff1916908160001a9053508080600101915050613e2c565b600090505b8751811015613f0d57878181518110613eb457fe5b602001015160f81c60f81b838380600101945081518110613ed157fe5b60200101907effffffffffffffffffffffffffffffffffffffffffffffffffffffffffffff1916908160001a9053508080600101915050613e9f565b600090505b8651811015613f8057868181518110613f2757fe5b602001015160f81c60f81b838380600101945081518110613f4457fe5b60200101907effffffffffffffffffffffffffffffffffffffffffffffffffffffffffffff1916908160001a9053508080600101915050613f12565b600090505b8551811015613ff357858181518110613f9a57fe5b602001015160f81c60f81b838380600101945081518110613fb757fe5b60200101907effffffffffffffffffffffffffffffffffffffffffffffffffffffffffffff1916908160001a9053508080600101915050613f85565b600090505b84518110156140665784818151811061400d57fe5b602001015160f81c60f81b83838060010194508151811061402a57fe5b60200101907effffffffffffffffffffffffffffffffffffffffffffffffffffffffffffff1916908160001a9053508080600101915050613ff8565b82995050505050505050505095945050505050565b604051806080016040528060008019168152602001600073ffffffffffffffffffffffffffffffffffffffff168152602001600081526020016000151581525090565b6040518061010001604052806140d2614200565b81526020016140df61425e565b81526020016140ec614200565b81525090565b604051806101e00160405280614106614200565b815260200161411361425e565b815260200161412061425e565b815260200161412d61425e565b8152602001606081525090565b604051806040016040528060008152602001600081525090565b81548183558181111561417b5781836000526020600020918201910161417a91906142a6565b5b505050565b828054600181600116156101000203166002900490600052602060002090601f016020900481019282601f106141c157805160ff19168380011785556141ef565b828001600101855582156141ef579182015b828111156141ee5782518255916020019190600101906141d3565b5b5090506141fc91906142a6565b5090565b604051806040016040528060008152602001600081525090565b6040518060600160405280600390602082028038833980820191505090505090565b6040518060800160405280600490602082028038833980820191505090505090565b60405180608001604052806142716142cb565b815260200161427e6142cb565b81525090565b6040518060200160405280600190602082028038833980820191505090505090565b6142c891905b808211156142c45760008160009055506001016142ac565b5090565b90565b604051806040016040528060029060208202803883398082019150509050509056fe546f6b656e20697320616c7265616479206f776e65642062792072656365697069656e744e6f7420616c6c6f77656420746f207472616e7366657220746f20636f6e74726163742e5472616e73616374696f6e207375636365737366756c6c792076657269666965642ea165627a7a72305820ec3f874024dc443ac1c0b2efde5f3a2e5554cbbbd143fd96f6125bcd0c6c7d44002968747470733a2f2f73332d75732d776573742d322e616d617a6f6e6177732e636f6d2f756461636974792d626c6f636b636861696e2f63617073746f6e652f",
  "source": "pragma solidity >=0.4.21 <0.6.0;\n\n// define a contract call to the zokrates generated solidity contract <Verifier> or <renamedVerifier>\nimport \"./ERC721Mintable.sol\";\nimport \"./verifier.sol\";\n\n\n// define another contract named SolnSquareVerifier that inherits from your ERC721Mintable class\ncontract SolnSquareVerifier is Verifier, R2Token{\n    // define a solutions struct that can hold an index & an address\n    struct Solution {\n        bytes32 index;\n        address addr;\n        uint256 tokenId;\n        bool exist;\n    }\n\n    // define an array of the above struct\n    mapping(uint256 => Solution) solutions;\n\n    // define a mapping to store unique solutions submitted\n    mapping(bytes32 => bool) private uniqueSolutions;\n\n    // Create an event to emit when a solution is added\n    event SolutionAdded(bytes32 key, address addr, uint256 tokenId);\n\n    //  Create a function to add the solutions to the array and emit the event\n    //  This will just limit the ability for a user to mint a token unless they have actually verified that they own that token\n    function addSolution(address addr, uint256 tokenId, uint[2] memory a, uint[2][2] memory b, uint[2] memory c, uint[2] memory input) public{\n        // Create unique key for the argumqnts\n        bytes32 key = keccak256(abi.encodePacked(a, b, c, input));\n        // Check whether the solution is already used\n        require(!uniqueSolutions[key], \"This solution was already used!\");\n        // Verification to check if a token is valid using zokrates (verifier.sol)\n        bool isValidProof = verifyTx(a, b, c, input);\n        require(isValidProof, \"The provided proof is not valid!\");\n        // Add solutions mappings and set uniqueSolutions to be true\n        Solution memory solution = Solution(key, addr, tokenId, true);\n        solutions[tokenId] = solution;\n        uniqueSolutions[key] = true;\n        emit SolutionAdded(key, addr, tokenId);\n    }\n\n\n    // Create a function to mint new NFT only after the solution has been verified\n    //  - make sure the solution is unique (has not been used before)\n    //  - make sure you handle metadata as well as tokenSuplly\n    function mint(address to, uint256 tokenId) public returns(bool){\n        require(solutions[tokenId].exist,\"solution has been used before\");\n        return super.mint(to, tokenId);\n    }\n}\n",
  "sourcePath": "/Users/rinatakahashi/Desktop/Development/Udacity/6.Capstone/BDND-project5-Blockchain-Capstone/eth-contracts/contracts/SolnSquareVerifier.sol",
  "compiler": {
    "name": "solc",
    "version": "0.5.8+commit.23d335f2.Emscripten.clang"
  },
  "schemaVersion": "3.0.16",
  "updatedAt": "2019-10-13T07:14:55.322Z",
  "devdoc": {
    "methods": {
      "approve(address,uint256)": {
        "details": "Approves another address to transfer the given token ID"
      },
      "isApprovedForAll(address,address)": {
        "details": "Tells whether an operator is approved by a given owner",
        "params": {
          "operator": "operator address which you want to query the approval of",
          "owner": "owner address which you want to query the approval of"
        },
        "return": "bool whether the given operator is approved by the given owner"
      },
      "setApprovalForAll(address,bool)": {
        "details": "Sets or unsets the approval of a given operator An operator is allowed to transfer all tokens of the sender on their behalf",
        "params": {
          "approved": "representing the status of the approval to be set",
          "to": "operator address to set the approval"
        }
      },
      "supportsInterface(bytes4)": {
        "details": "implement supportsInterface(bytes4) using a lookup table"
      },
      "tokenByIndex(uint256)": {
        "details": "Gets the token ID at a given index of all the tokens in this contract Reverts if the index is greater or equal to the total number of tokens",
        "params": {
          "index": "uint256 representing the index to be accessed of the tokens list"
        },
        "return": "uint256 token ID at the given index of the tokens list"
      },
      "tokenOfOwnerByIndex(address,uint256)": {
        "details": "Gets the token ID at a given index of the tokens list of the requested owner",
        "params": {
          "index": "uint256 representing the index to be accessed of the requested tokens list",
          "owner": "address owning the tokens list to be accessed"
        },
        "return": "uint256 token ID at the given index of the tokens list owned by the requested address"
      },
      "totalSupply()": {
        "details": "Gets the total amount of tokens stored by the contract",
        "return": "uint256 representing the total amount of tokens"
      }
    }
  },
  "userdoc": {
    "methods": {}
  }
}